{
  "_format": "hh-sol-artifact-1",
  "contractName": "P2PNFT",
  "sourceName": "contracts/p2pNFT.sol",
  "abi": [
    {
      "inputs": [],
      "stateMutability": "nonpayable",
      "type": "constructor"
    },
    {
      "inputs": [
        {
          "internalType": "bytes32",
          "name": "_rawMessageHash",
          "type": "bytes32"
        },
        {
          "internalType": "address",
          "name": "signer",
          "type": "address"
        }
      ],
      "name": "HashAlreadyMinted",
      "type": "error"
    },
    {
      "inputs": [
        {
          "internalType": "address",
          "name": "resolved",
          "type": "address"
        },
        {
          "internalType": "address",
          "name": "targeted",
          "type": "address"
        }
      ],
      "name": "WrongResolvedAddress",
      "type": "error"
    },
    {
      "anonymous": false,
      "inputs": [
        {
          "indexed": true,
          "internalType": "address",
          "name": "account",
          "type": "address"
        },
        {
          "indexed": true,
          "internalType": "address",
          "name": "operator",
          "type": "address"
        },
        {
          "indexed": false,
          "internalType": "bool",
          "name": "approved",
          "type": "bool"
        }
      ],
      "name": "ApprovalForAll",
      "type": "event"
    },
    {
      "anonymous": false,
      "inputs": [
        {
          "indexed": true,
          "internalType": "uint256",
          "name": "token_Id",
          "type": "uint256"
        },
        {
          "indexed": false,
          "internalType": "bytes32",
          "name": "_rawMessageHash",
          "type": "bytes32"
        }
      ],
      "name": "TokenInitialized",
      "type": "event"
    },
    {
      "anonymous": false,
      "inputs": [
        {
          "indexed": true,
          "internalType": "uint256",
          "name": "token_Id",
          "type": "uint256"
        },
        {
          "indexed": false,
          "internalType": "address",
          "name": "_address",
          "type": "address"
        }
      ],
      "name": "TokenInitializedAddress",
      "type": "event"
    },
    {
      "anonymous": false,
      "inputs": [
        {
          "indexed": true,
          "internalType": "address",
          "name": "operator",
          "type": "address"
        },
        {
          "indexed": true,
          "internalType": "address",
          "name": "from",
          "type": "address"
        },
        {
          "indexed": true,
          "internalType": "address",
          "name": "to",
          "type": "address"
        },
        {
          "indexed": false,
          "internalType": "uint256[]",
          "name": "ids",
          "type": "uint256[]"
        },
        {
          "indexed": false,
          "internalType": "uint256[]",
          "name": "values",
          "type": "uint256[]"
        }
      ],
      "name": "TransferBatch",
      "type": "event"
    },
    {
      "anonymous": false,
      "inputs": [
        {
          "indexed": true,
          "internalType": "address",
          "name": "operator",
          "type": "address"
        },
        {
          "indexed": true,
          "internalType": "address",
          "name": "from",
          "type": "address"
        },
        {
          "indexed": true,
          "internalType": "address",
          "name": "to",
          "type": "address"
        },
        {
          "indexed": false,
          "internalType": "uint256",
          "name": "id",
          "type": "uint256"
        },
        {
          "indexed": false,
          "internalType": "uint256",
          "name": "value",
          "type": "uint256"
        }
      ],
      "name": "TransferSingle",
      "type": "event"
    },
    {
      "anonymous": false,
      "inputs": [
        {
          "indexed": false,
          "internalType": "string",
          "name": "value",
          "type": "string"
        },
        {
          "indexed": true,
          "internalType": "uint256",
          "name": "id",
          "type": "uint256"
        }
      ],
      "name": "URI",
      "type": "event"
    },
    {
      "inputs": [
        {
          "internalType": "address",
          "name": "account",
          "type": "address"
        },
        {
          "internalType": "uint256",
          "name": "id",
          "type": "uint256"
        }
      ],
      "name": "balanceOf",
      "outputs": [
        {
          "internalType": "uint256",
          "name": "",
          "type": "uint256"
        }
      ],
      "stateMutability": "view",
      "type": "function"
    },
    {
      "inputs": [
        {
          "internalType": "address[]",
          "name": "accounts",
          "type": "address[]"
        },
        {
          "internalType": "uint256[]",
          "name": "ids",
          "type": "uint256[]"
        }
      ],
      "name": "balanceOfBatch",
      "outputs": [
        {
          "internalType": "uint256[]",
          "name": "",
          "type": "uint256[]"
        }
      ],
      "stateMutability": "view",
      "type": "function"
    },
    {
      "inputs": [
        {
          "internalType": "bytes32",
          "name": "_messageHash",
          "type": "bytes32"
        }
      ],
      "name": "getEthSignedMessageHash",
      "outputs": [
        {
          "internalType": "bytes32",
          "name": "",
          "type": "bytes32"
        }
      ],
      "stateMutability": "pure",
      "type": "function"
    },
    {
      "inputs": [
        {
          "internalType": "address[]",
          "name": "addresses",
          "type": "address[]"
        },
        {
          "internalType": "bytes32",
          "name": "_rawMessageHash",
          "type": "bytes32"
        }
      ],
      "name": "getMessageHash",
      "outputs": [
        {
          "internalType": "bytes32",
          "name": "",
          "type": "bytes32"
        }
      ],
      "stateMutability": "pure",
      "type": "function"
    },
    {
      "inputs": [
        {
          "internalType": "bytes",
          "name": "_signatures",
          "type": "bytes"
        },
        {
          "internalType": "bytes32",
          "name": "_rawMessageHash",
          "type": "bytes32"
        },
        {
          "internalType": "address[]",
          "name": "addresses",
          "type": "address[]"
        }
      ],
      "name": "initilizeNFT",
      "outputs": [],
      "stateMutability": "nonpayable",
      "type": "function"
    },
    {
      "inputs": [
        {
          "internalType": "address",
          "name": "account",
          "type": "address"
        },
        {
          "internalType": "address",
          "name": "operator",
          "type": "address"
        }
      ],
      "name": "isApprovedForAll",
      "outputs": [
        {
          "internalType": "bool",
          "name": "",
          "type": "bool"
        }
      ],
      "stateMutability": "view",
      "type": "function"
    },
    {
      "inputs": [
        {
          "internalType": "bytes32",
          "name": "",
          "type": "bytes32"
        },
        {
          "internalType": "address",
          "name": "",
          "type": "address"
        }
      ],
      "name": "isHashUsed",
      "outputs": [
        {
          "internalType": "bool",
          "name": "",
          "type": "bool"
        }
      ],
      "stateMutability": "view",
      "type": "function"
    },
    {
      "inputs": [
        {
          "internalType": "uint256",
          "name": "tokenId",
          "type": "uint256"
        },
        {
          "internalType": "address",
          "name": "to",
          "type": "address"
        }
      ],
      "name": "mint",
      "outputs": [],
      "stateMutability": "nonpayable",
      "type": "function"
    },
    {
      "inputs": [
        {
          "internalType": "uint256",
          "name": "",
          "type": "uint256"
        },
        {
          "internalType": "address",
          "name": "",
          "type": "address"
        }
      ],
      "name": "p2pwhitelist",
      "outputs": [
        {
          "internalType": "bool",
          "name": "",
          "type": "bool"
        }
      ],
      "stateMutability": "view",
      "type": "function"
    },
    {
      "inputs": [
        {
          "internalType": "address",
          "name": "from",
          "type": "address"
        },
        {
          "internalType": "address",
          "name": "to",
          "type": "address"
        },
        {
          "internalType": "uint256[]",
          "name": "ids",
          "type": "uint256[]"
        },
        {
          "internalType": "uint256[]",
          "name": "amounts",
          "type": "uint256[]"
        },
        {
          "internalType": "bytes",
          "name": "data",
          "type": "bytes"
        }
      ],
      "name": "safeBatchTransferFrom",
      "outputs": [],
      "stateMutability": "nonpayable",
      "type": "function"
    },
    {
      "inputs": [
        {
          "internalType": "address",
          "name": "from",
          "type": "address"
        },
        {
          "internalType": "address",
          "name": "to",
          "type": "address"
        },
        {
          "internalType": "uint256",
          "name": "id",
          "type": "uint256"
        },
        {
          "internalType": "uint256",
          "name": "amount",
          "type": "uint256"
        },
        {
          "internalType": "bytes",
          "name": "data",
          "type": "bytes"
        }
      ],
      "name": "safeTransferFrom",
      "outputs": [],
      "stateMutability": "nonpayable",
      "type": "function"
    },
    {
      "inputs": [
        {
          "internalType": "address",
          "name": "operator",
          "type": "address"
        },
        {
          "internalType": "bool",
          "name": "approved",
          "type": "bool"
        }
      ],
      "name": "setApprovalForAll",
      "outputs": [],
      "stateMutability": "nonpayable",
      "type": "function"
    },
    {
      "inputs": [
        {
          "internalType": "bytes",
          "name": "sig",
          "type": "bytes"
        }
      ],
      "name": "splitSignature",
      "outputs": [
        {
          "internalType": "bytes32",
          "name": "r",
          "type": "bytes32"
        },
        {
          "internalType": "bytes32",
          "name": "s",
          "type": "bytes32"
        },
        {
          "internalType": "uint8",
          "name": "v",
          "type": "uint8"
        }
      ],
      "stateMutability": "pure",
      "type": "function"
    },
    {
      "inputs": [
        {
          "internalType": "bytes4",
          "name": "interfaceId",
          "type": "bytes4"
        }
      ],
      "name": "supportsInterface",
      "outputs": [
        {
          "internalType": "bool",
          "name": "",
          "type": "bool"
        }
      ],
      "stateMutability": "view",
      "type": "function"
    },
    {
      "inputs": [
        {
          "internalType": "uint256",
          "name": "",
          "type": "uint256"
        }
      ],
      "name": "uri",
      "outputs": [
        {
          "internalType": "string",
          "name": "",
          "type": "string"
        }
      ],
      "stateMutability": "view",
      "type": "function"
    }
  ],
  "bytecode": "0x60806040523480156200001157600080fd5b5060408051808201909152601881527f68747470733a2f2f7777772e6d796170703132332e636f6d00000000000000006020820152620000518162000058565b5062000154565b80516200006d90600290602084019062000071565b5050565b8280546200007f9062000117565b90600052602060002090601f016020900481019282620000a35760008555620000ee565b82601f10620000be57805160ff1916838001178555620000ee565b82800160010185558215620000ee579182015b82811115620000ee578251825591602001919060010190620000d1565b50620000fc92915062000100565b5090565b5b80821115620000fc576000815560010162000101565b600181811c908216806200012c57607f821691505b602082108114156200014e57634e487b7160e01b600052602260045260246000fd5b50919050565b611c7a80620001646000396000f3fe608060405234801561001057600080fd5b50600436106100f45760003560e01c80637ae86c8311610097578063a7bb580311610066578063a7bb58031461023f578063e985e9c514610270578063f242432a146102ac578063fa540801146102bf57600080fd5b80637ae86c83146101d85780637e3c45f0146101eb57806394bf804d14610219578063a22cb4651461022c57600080fd5b80632eb2c2d6116100d35780632eb2c2d6146101625780634e1273f4146101775780634e17a7021461019757806377080bc2146101c557600080fd5b8062fdd58e146100f957806301ffc9a71461011f5780630e89341c14610142575b600080fd5b61010c610107366004611313565b6102d2565b6040519081526020015b60405180910390f35b61013261012d366004611356565b610369565b6040519015158152602001610116565b61015561015036600461137a565b6103bb565b60405161011691906113e0565b61017561017036600461153f565b61044f565b005b61018a610185366004611656565b6104e6565b60405161011691906116f5565b6101326101a5366004611708565b600560209081526000928352604080842090915290825290205460ff1681565b6101756101d3366004611734565b610610565b61010c6101e63660046117a1565b610891565b6101326101f9366004611708565b600460209081526000928352604080842090915290825290205460ff1681565b610175610227366004611708565b6108c4565b61017561023a3660046117e6565b61098e565b61025261024d366004611822565b610999565b60408051938452602084019290925260ff1690820152606001610116565b61013261027e36600461185f565b6001600160a01b03918216600090815260016020908152604080832093909416825291909152205460ff1690565b6101756102ba366004611889565b610a0d565b61010c6102cd36600461137a565b610a94565b60006001600160a01b0383166103435760405162461bcd60e51b815260206004820152602b60248201527f455243313135353a2062616c616e636520717565727920666f7220746865207a60448201526a65726f206164647265737360a81b60648201526084015b60405180910390fd5b506000908152602081815260408083206001600160a01b03949094168352929052205490565b60006001600160e01b03198216636cdb3d1360e11b148061039a57506001600160e01b031982166303a24d0760e21b145b806103b557506301ffc9a760e01b6001600160e01b03198316145b92915050565b6060600280546103ca906118ee565b80601f01602080910402602001604051908101604052809291908181526020018280546103f6906118ee565b80156104435780601f1061041857610100808354040283529160200191610443565b820191906000526020600020905b81548152906001019060200180831161042657829003601f168201915b50505050509050919050565b6001600160a01b03851633148061046b575061046b853361027e565b6104d25760405162461bcd60e51b815260206004820152603260248201527f455243313135353a207472616e736665722063616c6c6572206973206e6f74206044820152711bdddb995c881b9bdc88185c1c1c9bdd995960721b606482015260840161033a565b6104df8585858585610ae7565b5050505050565b6060815183511461054b5760405162461bcd60e51b815260206004820152602960248201527f455243313135353a206163636f756e747320616e6420696473206c656e677468604482015268040dad2e6dac2e8c6d60bb1b606482015260840161033a565b6000835167ffffffffffffffff811115610567576105676113f3565b604051908082528060200260200182016040528015610590578160200160208202803683370190505b50905060005b8451811015610608576105db8582815181106105b4576105b4611929565b60200260200101518583815181106105ce576105ce611929565b60200260200101516102d2565b8282815181106105ed576105ed611929565b602090810291909101015261060181611955565b9050610596565b509392505050565b8051600061061d60035490565b905060005b82811015610841576000806000610652898560419081029190910160208101516040820151919092015160ff1692565b9250925092506000610664888a610891565b9050600061067182610a94565b6040805160008082526020820180845284905260ff89169282019290925260608101879052608081018690529192509060019060a0016020604051602081039080840390855afa1580156106c9573d6000803e3d6000fd5b5050506020604051035190508987815181106106e7576106e7611929565b60200260200101516001600160a01b0316816001600160a01b03161461075257808a888151811061071a5761071a611929565b6020026020010151604051632dc0eb7d60e21b815260040161033a9291906001600160a01b0392831681529116602082015260400190565b60008b81526005602090815260408083206001600160a01b038516845290915290205460ff16156107a857604051630d0b96dd60e01b8152600481018c90526001600160a01b038216602482015260440161033a565b60008b81526005602090815260408083206001600160a01b0385168085529083528184208054600160ff1991821681179092558d8652600485528386208387528552948390208054909516179093555191825289917fc48f69701e56be6ddf9b404fdd3be43efa65bfa803e6c2036493dfee5065c50c910160405180910390a2505050505050808061083990611955565b915050610622565b50610850600380546001019055565b807fa5e7d43940fd0873a7ff75f0168fe1cb66544fb316f7b646795fa1bc1d0861f88560405161088291815260200190565b60405180910390a25050505050565b600082826040516020016108a6929190611970565b60405160208183030381529060405280519060200120905092915050565b60008281526004602090815260408083206001600160a01b038516845290915290205460ff166109265760405162461bcd60e51b815260206004820152600d60248201526c1b9bdd081dda1a5d195b1a5cdd609a1b604482015260640161033a565b61093081836102d2565b1561096e5760405162461bcd60e51b815260206004820152600e60248201526d185b1c9958591e481b5a5b9d195960921b604482015260640161033a565b61098a8183600160405180602001604052806000815250610ce0565b5050565b61098a338383610e12565b600080600083516041146109ef5760405162461bcd60e51b815260206004820152601860248201527f696e76616c6964207369676e6174757265206c656e6774680000000000000000604482015260640161033a565b50505060208101516040820151606090920151909260009190911a90565b6001600160a01b038516331480610a295750610a29853361027e565b610a875760405162461bcd60e51b815260206004820152602960248201527f455243313135353a2063616c6c6572206973206e6f74206f776e6572206e6f7260448201526808185c1c1c9bdd995960ba1b606482015260840161033a565b6104df8585858585610ef3565b6040517f19457468657265756d205369676e6564204d6573736167653a0a3332000000006020820152603c8101829052600090605c01604051602081830303815290604052805190602001209050919050565b8151835114610b495760405162461bcd60e51b815260206004820152602860248201527f455243313135353a2069647320616e6420616d6f756e7473206c656e677468206044820152670dad2e6dac2e8c6d60c31b606482015260840161033a565b6001600160a01b038416610b6f5760405162461bcd60e51b815260040161033a906119c1565b33610b7e818787878787611039565b60005b8451811015610c64576000858281518110610b9e57610b9e611929565b602002602001015190506000858381518110610bbc57610bbc611929565b602090810291909101810151600084815280835260408082206001600160a01b038e168352909352919091205490915081811015610c0c5760405162461bcd60e51b815260040161033a90611a06565b6000838152602081815260408083206001600160a01b038e8116855292528083208585039055908b16825281208054849290610c49908490611a50565b9250508190555050505080610c5d90611955565b9050610b81565b50846001600160a01b0316866001600160a01b0316826001600160a01b03167f4a39dc06d4c0dbc64b70af90fd698a233a518aa5d07e595d983b8c0526c8f7fb8787604051610cb4929190611a68565b60405180910390a4610cca818787878787611090565b610cd8818787878787611095565b505050505050565b6001600160a01b038416610d405760405162461bcd60e51b815260206004820152602160248201527f455243313135353a206d696e7420746f20746865207a65726f206164647265736044820152607360f81b606482015260840161033a565b336000610d4c856111f1565b90506000610d59856111f1565b9050610d6a83600089858589611039565b6000868152602081815260408083206001600160a01b038b16845290915281208054879290610d9a908490611a50565b909155505060408051878152602081018790526001600160a01b03808a1692600092918716917fc3d58168c5ae7397731d063d5bbf3d657854427343f4c083240f7aacaa2d0f62910160405180910390a4610dfa83600089858589611090565b610e098360008989898961123c565b50505050505050565b816001600160a01b0316836001600160a01b03161415610e865760405162461bcd60e51b815260206004820152602960248201527f455243313135353a2073657474696e6720617070726f76616c20737461747573604482015268103337b91039b2b63360b91b606482015260840161033a565b6001600160a01b03838116600081815260016020908152604080832094871680845294825291829020805460ff191686151590811790915591519182527f17307eab39ab6107e8899845ad3d59bd9653f200f220920489ca2b5937696c31910160405180910390a3505050565b6001600160a01b038416610f195760405162461bcd60e51b815260040161033a906119c1565b336000610f25856111f1565b90506000610f32856111f1565b9050610f42838989858589611039565b6000868152602081815260408083206001600160a01b038c16845290915290205485811015610f835760405162461bcd60e51b815260040161033a90611a06565b6000878152602081815260408083206001600160a01b038d8116855292528083208985039055908a16825281208054889290610fc0908490611a50565b909155505060408051888152602081018890526001600160a01b03808b16928c821692918816917fc3d58168c5ae7397731d063d5bbf3d657854427343f4c083240f7aacaa2d0f62910160405180910390a4611020848a8a86868a611090565b61102e848a8a8a8a8a61123c565b505050505050505050565b6001600160a01b038516156110905760405162461bcd60e51b815260206004820152601860248201527f4572723a20746f6b656e20697320534f554c20424f554e440000000000000000604482015260640161033a565b610cd8565b6001600160a01b0384163b15610cd85760405163bc197c8160e01b81526001600160a01b0385169063bc197c81906110d99089908990889088908890600401611a96565b6020604051808303816000875af1925050508015611114575060408051601f3d908101601f1916820190925261111191810190611af4565b60015b6111c157611120611b11565b806308c379a0141561115a5750611135611b2d565b80611140575061115c565b8060405162461bcd60e51b815260040161033a91906113e0565b505b60405162461bcd60e51b815260206004820152603460248201527f455243313135353a207472616e7366657220746f206e6f6e20455243313135356044820152732932b1b2b4bb32b91034b6b83632b6b2b73a32b960611b606482015260840161033a565b6001600160e01b0319811663bc197c8160e01b14610e095760405162461bcd60e51b815260040161033a90611bb7565b6040805160018082528183019092526060916000919060208083019080368337019050509050828160008151811061122b5761122b611929565b602090810291909101015292915050565b6001600160a01b0384163b15610cd85760405163f23a6e6160e01b81526001600160a01b0385169063f23a6e61906112809089908990889088908890600401611bff565b6020604051808303816000875af19250505080156112bb575060408051601f3d908101601f191682019092526112b891810190611af4565b60015b6112c757611120611b11565b6001600160e01b0319811663f23a6e6160e01b14610e095760405162461bcd60e51b815260040161033a90611bb7565b80356001600160a01b038116811461130e57600080fd5b919050565b6000806040838503121561132657600080fd5b61132f836112f7565b946020939093013593505050565b6001600160e01b03198116811461135357600080fd5b50565b60006020828403121561136857600080fd5b81356113738161133d565b9392505050565b60006020828403121561138c57600080fd5b5035919050565b6000815180845260005b818110156113b95760208185018101518683018201520161139d565b818111156113cb576000602083870101525b50601f01601f19169290920160200192915050565b6020815260006113736020830184611393565b634e487b7160e01b600052604160045260246000fd5b601f8201601f1916810167ffffffffffffffff8111828210171561142f5761142f6113f3565b6040525050565b600067ffffffffffffffff821115611450576114506113f3565b5060051b60200190565b600082601f83011261146b57600080fd5b8135602061147882611436565b6040516114858282611409565b83815260059390931b85018201928281019150868411156114a557600080fd5b8286015b848110156114c057803583529183019183016114a9565b509695505050505050565b600082601f8301126114dc57600080fd5b813567ffffffffffffffff8111156114f6576114f66113f3565b60405161150d601f8301601f191660200182611409565b81815284602083860101111561152257600080fd5b816020850160208301376000918101602001919091529392505050565b600080600080600060a0868803121561155757600080fd5b611560866112f7565b945061156e602087016112f7565b9350604086013567ffffffffffffffff8082111561158b57600080fd5b61159789838a0161145a565b945060608801359150808211156115ad57600080fd5b6115b989838a0161145a565b935060808801359150808211156115cf57600080fd5b506115dc888289016114cb565b9150509295509295909350565b600082601f8301126115fa57600080fd5b8135602061160782611436565b6040516116148282611409565b83815260059390931b850182019282810191508684111561163457600080fd5b8286015b848110156114c057611649816112f7565b8352918301918301611638565b6000806040838503121561166957600080fd5b823567ffffffffffffffff8082111561168157600080fd5b61168d868387016115e9565b935060208501359150808211156116a357600080fd5b506116b08582860161145a565b9150509250929050565b600081518084526020808501945080840160005b838110156116ea578151875295820195908201906001016116ce565b509495945050505050565b60208152600061137360208301846116ba565b6000806040838503121561171b57600080fd5b8235915061172b602084016112f7565b90509250929050565b60008060006060848603121561174957600080fd5b833567ffffffffffffffff8082111561176157600080fd5b61176d878388016114cb565b945060208601359350604086013591508082111561178a57600080fd5b50611797868287016115e9565b9150509250925092565b600080604083850312156117b457600080fd5b823567ffffffffffffffff8111156117cb57600080fd5b6117d7858286016115e9565b95602094909401359450505050565b600080604083850312156117f957600080fd5b611802836112f7565b91506020830135801515811461181757600080fd5b809150509250929050565b60006020828403121561183457600080fd5b813567ffffffffffffffff81111561184b57600080fd5b611857848285016114cb565b949350505050565b6000806040838503121561187257600080fd5b61187b836112f7565b915061172b602084016112f7565b600080600080600060a086880312156118a157600080fd5b6118aa866112f7565b94506118b8602087016112f7565b93506040860135925060608601359150608086013567ffffffffffffffff8111156118e257600080fd5b6115dc888289016114cb565b600181811c9082168061190257607f821691505b6020821081141561192357634e487b7160e01b600052602260045260246000fd5b50919050565b634e487b7160e01b600052603260045260246000fd5b634e487b7160e01b600052601160045260246000fd5b60006000198214156119695761196961193f565b5060010190565b604080825283519082018190526000906020906060840190828701845b828110156119b25781516001600160a01b03168452928401929084019060010161198d565b50505092019290925292915050565b60208082526025908201527f455243313135353a207472616e7366657220746f20746865207a65726f206164604082015264647265737360d81b606082015260800190565b6020808252602a908201527f455243313135353a20696e73756666696369656e742062616c616e636520666f60408201526939103a3930b739b332b960b11b606082015260800190565b60008219821115611a6357611a6361193f565b500190565b604081526000611a7b60408301856116ba565b8281036020840152611a8d81856116ba565b95945050505050565b6001600160a01b0386811682528516602082015260a060408201819052600090611ac2908301866116ba565b8281036060840152611ad481866116ba565b90508281036080840152611ae88185611393565b98975050505050505050565b600060208284031215611b0657600080fd5b81516113738161133d565b600060033d1115611b2a5760046000803e5060005160e01c5b90565b600060443d1015611b3b5790565b6040516003193d81016004833e81513d67ffffffffffffffff8160248401118184111715611b6b57505050505090565b8285019150815181811115611b835750505050505090565b843d8701016020828501011115611b9d5750505050505090565b611bac60208286010187611409565b509095945050505050565b60208082526028908201527f455243313135353a204552433131353552656365697665722072656a656374656040820152676420746f6b656e7360c01b606082015260800190565b6001600160a01b03868116825285166020820152604081018490526060810183905260a060808201819052600090611c3990830184611393565b97965050505050505056fea26469706673582212200160ce16aaf709871e8e51906fa99761e3b4ae65c4e20448fd695a87da2edbc664736f6c634300080b0033",
  "linkReferences": {},
  "deployedLinkReferences": {}
}