{
  "_format": "hh-sol-artifact-1",
  "contractName": "P2PNFT",
  "sourceName": "contracts/p2pNFT.sol",
  "abi": [
    {
      "inputs": [],
      "stateMutability": "nonpayable",
      "type": "constructor"
    },
    {
      "inputs": [
        {
          "internalType": "bytes32",
          "name": "_rawMessageHash",
          "type": "bytes32"
        },
        {
          "internalType": "address",
          "name": "signer",
          "type": "address"
        }
      ],
      "name": "HashAlreadyMinted",
      "type": "error"
    },
    {
      "inputs": [
        {
          "internalType": "address",
          "name": "resolved",
          "type": "address"
        },
        {
          "internalType": "address",
          "name": "targeted",
          "type": "address"
        }
      ],
      "name": "WrongResolvedAddress",
      "type": "error"
    },
    {
      "anonymous": false,
      "inputs": [
        {
          "indexed": true,
          "internalType": "address",
          "name": "account",
          "type": "address"
        },
        {
          "indexed": true,
          "internalType": "address",
          "name": "operator",
          "type": "address"
        },
        {
          "indexed": false,
          "internalType": "bool",
          "name": "approved",
          "type": "bool"
        }
      ],
      "name": "ApprovalForAll",
      "type": "event"
    },
    {
      "anonymous": false,
      "inputs": [
        {
          "indexed": true,
          "internalType": "uint256",
          "name": "token_Id",
          "type": "uint256"
        },
        {
          "indexed": false,
          "internalType": "bytes32",
          "name": "_rawMessageHash",
          "type": "bytes32"
        }
      ],
      "name": "TokenInitialized",
      "type": "event"
    },
    {
      "anonymous": false,
      "inputs": [
        {
          "indexed": true,
          "internalType": "uint256",
          "name": "token_Id",
          "type": "uint256"
        },
        {
          "indexed": false,
          "internalType": "address",
          "name": "_address",
          "type": "address"
        }
      ],
      "name": "TokenInitializedAddress",
      "type": "event"
    },
    {
      "anonymous": false,
      "inputs": [
        {
          "indexed": true,
          "internalType": "address",
          "name": "operator",
          "type": "address"
        },
        {
          "indexed": true,
          "internalType": "address",
          "name": "from",
          "type": "address"
        },
        {
          "indexed": true,
          "internalType": "address",
          "name": "to",
          "type": "address"
        },
        {
          "indexed": false,
          "internalType": "uint256[]",
          "name": "ids",
          "type": "uint256[]"
        },
        {
          "indexed": false,
          "internalType": "uint256[]",
          "name": "values",
          "type": "uint256[]"
        }
      ],
      "name": "TransferBatch",
      "type": "event"
    },
    {
      "anonymous": false,
      "inputs": [
        {
          "indexed": true,
          "internalType": "address",
          "name": "operator",
          "type": "address"
        },
        {
          "indexed": true,
          "internalType": "address",
          "name": "from",
          "type": "address"
        },
        {
          "indexed": true,
          "internalType": "address",
          "name": "to",
          "type": "address"
        },
        {
          "indexed": false,
          "internalType": "uint256",
          "name": "id",
          "type": "uint256"
        },
        {
          "indexed": false,
          "internalType": "uint256",
          "name": "value",
          "type": "uint256"
        }
      ],
      "name": "TransferSingle",
      "type": "event"
    },
    {
      "anonymous": false,
      "inputs": [
        {
          "indexed": false,
          "internalType": "string",
          "name": "value",
          "type": "string"
        },
        {
          "indexed": true,
          "internalType": "uint256",
          "name": "id",
          "type": "uint256"
        }
      ],
      "name": "URI",
      "type": "event"
    },
    {
      "inputs": [
        {
          "internalType": "address",
          "name": "account",
          "type": "address"
        },
        {
          "internalType": "uint256",
          "name": "id",
          "type": "uint256"
        }
      ],
      "name": "balanceOf",
      "outputs": [
        {
          "internalType": "uint256",
          "name": "",
          "type": "uint256"
        }
      ],
      "stateMutability": "view",
      "type": "function"
    },
    {
      "inputs": [
        {
          "internalType": "address[]",
          "name": "accounts",
          "type": "address[]"
        },
        {
          "internalType": "uint256[]",
          "name": "ids",
          "type": "uint256[]"
        }
      ],
      "name": "balanceOfBatch",
      "outputs": [
        {
          "internalType": "uint256[]",
          "name": "",
          "type": "uint256[]"
        }
      ],
      "stateMutability": "view",
      "type": "function"
    },
    {
      "inputs": [
        {
          "internalType": "bytes32",
          "name": "_messageHash",
          "type": "bytes32"
        }
      ],
      "name": "getEthSignedMessageHash",
      "outputs": [
        {
          "internalType": "bytes32",
          "name": "",
          "type": "bytes32"
        }
      ],
      "stateMutability": "pure",
      "type": "function"
    },
    {
      "inputs": [
        {
          "internalType": "address[]",
          "name": "addresses",
          "type": "address[]"
        },
        {
          "internalType": "bytes32",
          "name": "_rawMessageHash",
          "type": "bytes32"
        }
      ],
      "name": "getMessageHash",
      "outputs": [
        {
          "internalType": "bytes32",
          "name": "",
          "type": "bytes32"
        }
      ],
      "stateMutability": "pure",
      "type": "function"
    },
    {
      "inputs": [
        {
          "internalType": "bytes",
          "name": "_signatures",
          "type": "bytes"
        },
        {
          "internalType": "bytes32",
          "name": "_rawMessageHash",
          "type": "bytes32"
        },
        {
          "internalType": "address[]",
          "name": "addresses",
          "type": "address[]"
        }
      ],
      "name": "initilizeNFT",
      "outputs": [],
      "stateMutability": "nonpayable",
      "type": "function"
    },
    {
      "inputs": [
        {
          "internalType": "address",
          "name": "account",
          "type": "address"
        },
        {
          "internalType": "address",
          "name": "operator",
          "type": "address"
        }
      ],
      "name": "isApprovedForAll",
      "outputs": [
        {
          "internalType": "bool",
          "name": "",
          "type": "bool"
        }
      ],
      "stateMutability": "view",
      "type": "function"
    },
    {
      "inputs": [
        {
          "internalType": "bytes32",
          "name": "",
          "type": "bytes32"
        },
        {
          "internalType": "address",
          "name": "",
          "type": "address"
        }
      ],
      "name": "isHashUsed",
      "outputs": [
        {
          "internalType": "bool",
          "name": "",
          "type": "bool"
        }
      ],
      "stateMutability": "view",
      "type": "function"
    },
    {
      "inputs": [
        {
          "internalType": "uint256",
          "name": "tokenId",
          "type": "uint256"
        },
        {
          "internalType": "address",
          "name": "to",
          "type": "address"
        }
      ],
      "name": "mint",
      "outputs": [],
      "stateMutability": "nonpayable",
      "type": "function"
    },
    {
      "inputs": [
        {
          "internalType": "uint256",
          "name": "",
          "type": "uint256"
        },
        {
          "internalType": "address",
          "name": "",
          "type": "address"
        }
      ],
      "name": "p2pwhitelist",
      "outputs": [
        {
          "internalType": "bool",
          "name": "",
          "type": "bool"
        }
      ],
      "stateMutability": "view",
      "type": "function"
    },
    {
      "inputs": [
        {
          "internalType": "address",
          "name": "from",
          "type": "address"
        },
        {
          "internalType": "address",
          "name": "to",
          "type": "address"
        },
        {
          "internalType": "uint256[]",
          "name": "ids",
          "type": "uint256[]"
        },
        {
          "internalType": "uint256[]",
          "name": "amounts",
          "type": "uint256[]"
        },
        {
          "internalType": "bytes",
          "name": "data",
          "type": "bytes"
        }
      ],
      "name": "safeBatchTransferFrom",
      "outputs": [],
      "stateMutability": "nonpayable",
      "type": "function"
    },
    {
      "inputs": [
        {
          "internalType": "address",
          "name": "from",
          "type": "address"
        },
        {
          "internalType": "address",
          "name": "to",
          "type": "address"
        },
        {
          "internalType": "uint256",
          "name": "id",
          "type": "uint256"
        },
        {
          "internalType": "uint256",
          "name": "amount",
          "type": "uint256"
        },
        {
          "internalType": "bytes",
          "name": "data",
          "type": "bytes"
        }
      ],
      "name": "safeTransferFrom",
      "outputs": [],
      "stateMutability": "nonpayable",
      "type": "function"
    },
    {
      "inputs": [
        {
          "internalType": "address",
          "name": "operator",
          "type": "address"
        },
        {
          "internalType": "bool",
          "name": "approved",
          "type": "bool"
        }
      ],
      "name": "setApprovalForAll",
      "outputs": [],
      "stateMutability": "nonpayable",
      "type": "function"
    },
    {
      "inputs": [
        {
          "internalType": "bytes",
          "name": "sig",
          "type": "bytes"
        }
      ],
      "name": "splitSignature",
      "outputs": [
        {
          "internalType": "bytes32",
          "name": "r",
          "type": "bytes32"
        },
        {
          "internalType": "bytes32",
          "name": "s",
          "type": "bytes32"
        },
        {
          "internalType": "uint8",
          "name": "v",
          "type": "uint8"
        }
      ],
      "stateMutability": "pure",
      "type": "function"
    },
    {
      "inputs": [
        {
          "internalType": "bytes4",
          "name": "interfaceId",
          "type": "bytes4"
        }
      ],
      "name": "supportsInterface",
      "outputs": [
        {
          "internalType": "bool",
          "name": "",
          "type": "bool"
        }
      ],
      "stateMutability": "view",
      "type": "function"
    },
    {
      "inputs": [
        {
          "internalType": "uint256",
          "name": "",
          "type": "uint256"
        }
      ],
      "name": "uri",
      "outputs": [
        {
          "internalType": "string",
          "name": "",
          "type": "string"
        }
      ],
      "stateMutability": "view",
      "type": "function"
    }
  ],
  "bytecode": "0x60806040523480156200001157600080fd5b5060408051808201909152601881527f68747470733a2f2f7777772e6d796170703132332e636f6d00000000000000006020820152620000518162000058565b5062000154565b80516200006d90600290602084019062000071565b5050565b8280546200007f9062000117565b90600052602060002090601f016020900481019282620000a35760008555620000ee565b82601f10620000be57805160ff1916838001178555620000ee565b82800160010185558215620000ee579182015b82811115620000ee578251825591602001919060010190620000d1565b50620000fc92915062000100565b5090565b5b80821115620000fc576000815560010162000101565b600181811c908216806200012c57607f821691505b602082108114156200014e57634e487b7160e01b600052602260045260246000fd5b50919050565b611cdd80620001646000396000f3fe608060405234801561001057600080fd5b50600436106100f45760003560e01c80637ae86c8311610097578063a7bb580311610066578063a7bb58031461023f578063e985e9c514610270578063f242432a146102ac578063fa540801146102bf57600080fd5b80637ae86c83146101d85780637e3c45f0146101eb57806394bf804d14610219578063a22cb4651461022c57600080fd5b80632eb2c2d6116100d35780632eb2c2d6146101625780634e1273f4146101775780634e17a7021461019757806377080bc2146101c557600080fd5b8062fdd58e146100f957806301ffc9a71461011f5780630e89341c14610142575b600080fd5b61010c610107366004611365565b6102d2565b6040519081526020015b60405180910390f35b61013261012d3660046113a8565b610369565b6040519015158152602001610116565b6101556101503660046113cc565b6103bb565b6040516101169190611432565b610175610170366004611591565b61044f565b005b61018a6101853660046116a8565b6104e6565b6040516101169190611747565b6101326101a536600461175a565b600560209081526000928352604080842090915290825290205460ff1681565b6101756101d3366004611786565b610610565b61010c6101e63660046117f3565b6108e3565b6101326101f936600461175a565b600460209081526000928352604080842090915290825290205460ff1681565b61017561022736600461175a565b610916565b61017561023a366004611838565b6109e0565b61025261024d366004611874565b6109eb565b60408051938452602084019290925260ff1690820152606001610116565b61013261027e3660046118b1565b6001600160a01b03918216600090815260016020908152604080832093909416825291909152205460ff1690565b6101756102ba3660046118db565b610a5f565b61010c6102cd3660046113cc565b610ae6565b60006001600160a01b0383166103435760405162461bcd60e51b815260206004820152602b60248201527f455243313135353a2062616c616e636520717565727920666f7220746865207a60448201526a65726f206164647265737360a81b60648201526084015b60405180910390fd5b506000908152602081815260408083206001600160a01b03949094168352929052205490565b60006001600160e01b03198216636cdb3d1360e11b148061039a57506001600160e01b031982166303a24d0760e21b145b806103b557506301ffc9a760e01b6001600160e01b03198316145b92915050565b6060600280546103ca90611940565b80601f01602080910402602001604051908101604052809291908181526020018280546103f690611940565b80156104435780601f1061041857610100808354040283529160200191610443565b820191906000526020600020905b81548152906001019060200180831161042657829003601f168201915b50505050509050919050565b6001600160a01b03851633148061046b575061046b853361027e565b6104d25760405162461bcd60e51b815260206004820152603260248201527f455243313135353a207472616e736665722063616c6c6572206973206e6f74206044820152711bdddb995c881b9bdc88185c1c1c9bdd995960721b606482015260840161033a565b6104df8585858585610b39565b5050505050565b6060815183511461054b5760405162461bcd60e51b815260206004820152602960248201527f455243313135353a206163636f756e747320616e6420696473206c656e677468604482015268040dad2e6dac2e8c6d60bb1b606482015260840161033a565b6000835167ffffffffffffffff81111561056757610567611445565b604051908082528060200260200182016040528015610590578160200160208202803683370190505b50905060005b8451811015610608576105db8582815181106105b4576105b461197b565b60200260200101518583815181106105ce576105ce61197b565b60200260200101516102d2565b8282815181106105ed576105ed61197b565b6020908102919091010152610601816119a7565b9050610596565b509392505050565b805161061d8160416119c2565b8451146106645760405162461bcd60e51b8152602060048201526015602482015274696e6164657175617465207369676e61747572657360581b604482015260640161033a565b600061066f60035490565b905060005b828110156108935760008060006106a4898560419081029190910160208101516040820151919092015160ff1692565b92509250925060006106b6888a6108e3565b905060006106c382610ae6565b6040805160008082526020820180845284905260ff89169282019290925260608101879052608081018690529192509060019060a0016020604051602081039080840390855afa15801561071b573d6000803e3d6000fd5b5050506020604051035190508987815181106107395761073961197b565b60200260200101516001600160a01b0316816001600160a01b0316146107a457808a888151811061076c5761076c61197b565b6020026020010151604051632dc0eb7d60e21b815260040161033a9291906001600160a01b0392831681529116602082015260400190565b60008b81526005602090815260408083206001600160a01b038516845290915290205460ff16156107fa57604051630d0b96dd60e01b8152600481018c90526001600160a01b038216602482015260440161033a565b60008b81526005602090815260408083206001600160a01b0385168085529083528184208054600160ff1991821681179092558d8652600485528386208387528552948390208054909516179093555191825289917fc48f69701e56be6ddf9b404fdd3be43efa65bfa803e6c2036493dfee5065c50c910160405180910390a2505050505050808061088b906119a7565b915050610674565b506108a2600380546001019055565b807fa5e7d43940fd0873a7ff75f0168fe1cb66544fb316f7b646795fa1bc1d0861f8856040516108d491815260200190565b60405180910390a25050505050565b600082826040516020016108f89291906119e1565b60405160208183030381529060405280519060200120905092915050565b60008281526004602090815260408083206001600160a01b038516845290915290205460ff166109785760405162461bcd60e51b815260206004820152600d60248201526c1b9bdd081dda1a5d195b1a5cdd609a1b604482015260640161033a565b61098281836102d2565b156109c05760405162461bcd60e51b815260206004820152600e60248201526d185b1c9958591e481b5a5b9d195960921b604482015260640161033a565b6109dc8183600160405180602001604052806000815250610d32565b5050565b6109dc338383610e64565b60008060008351604114610a415760405162461bcd60e51b815260206004820152601860248201527f696e76616c6964207369676e6174757265206c656e6774680000000000000000604482015260640161033a565b50505060208101516040820151606090920151909260009190911a90565b6001600160a01b038516331480610a7b5750610a7b853361027e565b610ad95760405162461bcd60e51b815260206004820152602960248201527f455243313135353a2063616c6c6572206973206e6f74206f776e6572206e6f7260448201526808185c1c1c9bdd995960ba1b606482015260840161033a565b6104df8585858585610f45565b6040517f19457468657265756d205369676e6564204d6573736167653a0a3332000000006020820152603c8101829052600090605c01604051602081830303815290604052805190602001209050919050565b8151835114610b9b5760405162461bcd60e51b815260206004820152602860248201527f455243313135353a2069647320616e6420616d6f756e7473206c656e677468206044820152670dad2e6dac2e8c6d60c31b606482015260840161033a565b6001600160a01b038416610bc15760405162461bcd60e51b815260040161033a90611a24565b33610bd081878787878761108b565b60005b8451811015610cb6576000858281518110610bf057610bf061197b565b602002602001015190506000858381518110610c0e57610c0e61197b565b602090810291909101810151600084815280835260408082206001600160a01b038e168352909352919091205490915081811015610c5e5760405162461bcd60e51b815260040161033a90611a69565b6000838152602081815260408083206001600160a01b038e8116855292528083208585039055908b16825281208054849290610c9b908490611ab3565b9250508190555050505080610caf906119a7565b9050610bd3565b50846001600160a01b0316866001600160a01b0316826001600160a01b03167f4a39dc06d4c0dbc64b70af90fd698a233a518aa5d07e595d983b8c0526c8f7fb8787604051610d06929190611acb565b60405180910390a4610d1c8187878787876110e2565b610d2a8187878787876110e7565b505050505050565b6001600160a01b038416610d925760405162461bcd60e51b815260206004820152602160248201527f455243313135353a206d696e7420746f20746865207a65726f206164647265736044820152607360f81b606482015260840161033a565b336000610d9e85611243565b90506000610dab85611243565b9050610dbc8360008985858961108b565b6000868152602081815260408083206001600160a01b038b16845290915281208054879290610dec908490611ab3565b909155505060408051878152602081018790526001600160a01b03808a1692600092918716917fc3d58168c5ae7397731d063d5bbf3d657854427343f4c083240f7aacaa2d0f62910160405180910390a4610e4c836000898585896110e2565b610e5b8360008989898961128e565b50505050505050565b816001600160a01b0316836001600160a01b03161415610ed85760405162461bcd60e51b815260206004820152602960248201527f455243313135353a2073657474696e6720617070726f76616c20737461747573604482015268103337b91039b2b63360b91b606482015260840161033a565b6001600160a01b03838116600081815260016020908152604080832094871680845294825291829020805460ff191686151590811790915591519182527f17307eab39ab6107e8899845ad3d59bd9653f200f220920489ca2b5937696c31910160405180910390a3505050565b6001600160a01b038416610f6b5760405162461bcd60e51b815260040161033a90611a24565b336000610f7785611243565b90506000610f8485611243565b9050610f9483898985858961108b565b6000868152602081815260408083206001600160a01b038c16845290915290205485811015610fd55760405162461bcd60e51b815260040161033a90611a69565b6000878152602081815260408083206001600160a01b038d8116855292528083208985039055908a16825281208054889290611012908490611ab3565b909155505060408051888152602081018890526001600160a01b03808b16928c821692918816917fc3d58168c5ae7397731d063d5bbf3d657854427343f4c083240f7aacaa2d0f62910160405180910390a4611072848a8a86868a6110e2565b611080848a8a8a8a8a61128e565b505050505050505050565b6001600160a01b038516156110e25760405162461bcd60e51b815260206004820152601860248201527f4572723a20746f6b656e20697320534f554c20424f554e440000000000000000604482015260640161033a565b610d2a565b6001600160a01b0384163b15610d2a5760405163bc197c8160e01b81526001600160a01b0385169063bc197c819061112b9089908990889088908890600401611af9565b6020604051808303816000875af1925050508015611166575060408051601f3d908101601f1916820190925261116391810190611b57565b60015b61121357611172611b74565b806308c379a014156111ac5750611187611b90565b8061119257506111ae565b8060405162461bcd60e51b815260040161033a9190611432565b505b60405162461bcd60e51b815260206004820152603460248201527f455243313135353a207472616e7366657220746f206e6f6e20455243313135356044820152732932b1b2b4bb32b91034b6b83632b6b2b73a32b960611b606482015260840161033a565b6001600160e01b0319811663bc197c8160e01b14610e5b5760405162461bcd60e51b815260040161033a90611c1a565b6040805160018082528183019092526060916000919060208083019080368337019050509050828160008151811061127d5761127d61197b565b602090810291909101015292915050565b6001600160a01b0384163b15610d2a5760405163f23a6e6160e01b81526001600160a01b0385169063f23a6e61906112d29089908990889088908890600401611c62565b6020604051808303816000875af192505050801561130d575060408051601f3d908101601f1916820190925261130a91810190611b57565b60015b61131957611172611b74565b6001600160e01b0319811663f23a6e6160e01b14610e5b5760405162461bcd60e51b815260040161033a90611c1a565b80356001600160a01b038116811461136057600080fd5b919050565b6000806040838503121561137857600080fd5b61138183611349565b946020939093013593505050565b6001600160e01b0319811681146113a557600080fd5b50565b6000602082840312156113ba57600080fd5b81356113c58161138f565b9392505050565b6000602082840312156113de57600080fd5b5035919050565b6000815180845260005b8181101561140b576020818501810151868301820152016113ef565b8181111561141d576000602083870101525b50601f01601f19169290920160200192915050565b6020815260006113c560208301846113e5565b634e487b7160e01b600052604160045260246000fd5b601f8201601f1916810167ffffffffffffffff8111828210171561148157611481611445565b6040525050565b600067ffffffffffffffff8211156114a2576114a2611445565b5060051b60200190565b600082601f8301126114bd57600080fd5b813560206114ca82611488565b6040516114d7828261145b565b83815260059390931b85018201928281019150868411156114f757600080fd5b8286015b8481101561151257803583529183019183016114fb565b509695505050505050565b600082601f83011261152e57600080fd5b813567ffffffffffffffff81111561154857611548611445565b60405161155f601f8301601f19166020018261145b565b81815284602083860101111561157457600080fd5b816020850160208301376000918101602001919091529392505050565b600080600080600060a086880312156115a957600080fd5b6115b286611349565b94506115c060208701611349565b9350604086013567ffffffffffffffff808211156115dd57600080fd5b6115e989838a016114ac565b945060608801359150808211156115ff57600080fd5b61160b89838a016114ac565b9350608088013591508082111561162157600080fd5b5061162e8882890161151d565b9150509295509295909350565b600082601f83011261164c57600080fd5b8135602061165982611488565b604051611666828261145b565b83815260059390931b850182019282810191508684111561168657600080fd5b8286015b848110156115125761169b81611349565b835291830191830161168a565b600080604083850312156116bb57600080fd5b823567ffffffffffffffff808211156116d357600080fd5b6116df8683870161163b565b935060208501359150808211156116f557600080fd5b50611702858286016114ac565b9150509250929050565b600081518084526020808501945080840160005b8381101561173c57815187529582019590820190600101611720565b509495945050505050565b6020815260006113c5602083018461170c565b6000806040838503121561176d57600080fd5b8235915061177d60208401611349565b90509250929050565b60008060006060848603121561179b57600080fd5b833567ffffffffffffffff808211156117b357600080fd5b6117bf8783880161151d565b94506020860135935060408601359150808211156117dc57600080fd5b506117e98682870161163b565b9150509250925092565b6000806040838503121561180657600080fd5b823567ffffffffffffffff81111561181d57600080fd5b6118298582860161163b565b95602094909401359450505050565b6000806040838503121561184b57600080fd5b61185483611349565b91506020830135801515811461186957600080fd5b809150509250929050565b60006020828403121561188657600080fd5b813567ffffffffffffffff81111561189d57600080fd5b6118a98482850161151d565b949350505050565b600080604083850312156118c457600080fd5b6118cd83611349565b915061177d60208401611349565b600080600080600060a086880312156118f357600080fd5b6118fc86611349565b945061190a60208701611349565b93506040860135925060608601359150608086013567ffffffffffffffff81111561193457600080fd5b61162e8882890161151d565b600181811c9082168061195457607f821691505b6020821081141561197557634e487b7160e01b600052602260045260246000fd5b50919050565b634e487b7160e01b600052603260045260246000fd5b634e487b7160e01b600052601160045260246000fd5b60006000198214156119bb576119bb611991565b5060010190565b60008160001904831182151516156119dc576119dc611991565b500290565b825160009082906020808701845b83811015611a145781516001600160a01b0316855293820193908201906001016119ef565b5050948252509092019392505050565b60208082526025908201527f455243313135353a207472616e7366657220746f20746865207a65726f206164604082015264647265737360d81b606082015260800190565b6020808252602a908201527f455243313135353a20696e73756666696369656e742062616c616e636520666f60408201526939103a3930b739b332b960b11b606082015260800190565b60008219821115611ac657611ac6611991565b500190565b604081526000611ade604083018561170c565b8281036020840152611af0818561170c565b95945050505050565b6001600160a01b0386811682528516602082015260a060408201819052600090611b259083018661170c565b8281036060840152611b37818661170c565b90508281036080840152611b4b81856113e5565b98975050505050505050565b600060208284031215611b6957600080fd5b81516113c58161138f565b600060033d1115611b8d5760046000803e5060005160e01c5b90565b600060443d1015611b9e5790565b6040516003193d81016004833e81513d67ffffffffffffffff8160248401118184111715611bce57505050505090565b8285019150815181811115611be65750505050505090565b843d8701016020828501011115611c005750505050505090565b611c0f6020828601018761145b565b509095945050505050565b60208082526028908201527f455243313135353a204552433131353552656365697665722072656a656374656040820152676420746f6b656e7360c01b606082015260800190565b6001600160a01b03868116825285166020820152604081018490526060810183905260a060808201819052600090611c9c908301846113e5565b97965050505050505056fea2646970667358221220646317fec0721c7d52b2738457da888af3f166f376197b10b18eec6b4f0767a464736f6c634300080b0033",
  "linkReferences": {},
  "deployedLinkReferences": {}
}