{
  "_format": "hh-sol-artifact-1",
  "contractName": "P2PNFT",
  "sourceName": "contracts/p2pNFT.sol",
  "abi": [
    {
      "inputs": [],
      "stateMutability": "nonpayable",
      "type": "constructor"
    },
    {
      "inputs": [
        {
          "internalType": "bytes32",
          "name": "_rawMessageHash",
          "type": "bytes32"
        },
        {
          "internalType": "address",
          "name": "signer",
          "type": "address"
        }
      ],
      "name": "HashAlreadyMinted",
      "type": "error"
    },
    {
      "inputs": [
        {
          "internalType": "address",
          "name": "resolved",
          "type": "address"
        },
        {
          "internalType": "address",
          "name": "targeted",
          "type": "address"
        }
      ],
      "name": "WrongResolvedAddress",
      "type": "error"
    },
    {
      "anonymous": false,
      "inputs": [
        {
          "indexed": true,
          "internalType": "address",
          "name": "account",
          "type": "address"
        },
        {
          "indexed": true,
          "internalType": "address",
          "name": "operator",
          "type": "address"
        },
        {
          "indexed": false,
          "internalType": "bool",
          "name": "approved",
          "type": "bool"
        }
      ],
      "name": "ApprovalForAll",
      "type": "event"
    },
    {
      "anonymous": false,
      "inputs": [
        {
          "indexed": true,
          "internalType": "uint256",
          "name": "token_Id",
          "type": "uint256"
        },
        {
          "indexed": false,
          "internalType": "bytes32",
          "name": "_rawMessageHash",
          "type": "bytes32"
        }
      ],
      "name": "TokenInitialized",
      "type": "event"
    },
    {
      "anonymous": false,
      "inputs": [
        {
          "indexed": true,
          "internalType": "uint256",
          "name": "token_Id",
          "type": "uint256"
        },
        {
          "indexed": false,
          "internalType": "address",
          "name": "_address",
          "type": "address"
        }
      ],
      "name": "TokenInitializedAddress",
      "type": "event"
    },
    {
      "anonymous": false,
      "inputs": [
        {
          "indexed": true,
          "internalType": "address",
          "name": "operator",
          "type": "address"
        },
        {
          "indexed": true,
          "internalType": "address",
          "name": "from",
          "type": "address"
        },
        {
          "indexed": true,
          "internalType": "address",
          "name": "to",
          "type": "address"
        },
        {
          "indexed": false,
          "internalType": "uint256[]",
          "name": "ids",
          "type": "uint256[]"
        },
        {
          "indexed": false,
          "internalType": "uint256[]",
          "name": "values",
          "type": "uint256[]"
        }
      ],
      "name": "TransferBatch",
      "type": "event"
    },
    {
      "anonymous": false,
      "inputs": [
        {
          "indexed": true,
          "internalType": "address",
          "name": "operator",
          "type": "address"
        },
        {
          "indexed": true,
          "internalType": "address",
          "name": "from",
          "type": "address"
        },
        {
          "indexed": true,
          "internalType": "address",
          "name": "to",
          "type": "address"
        },
        {
          "indexed": false,
          "internalType": "uint256",
          "name": "id",
          "type": "uint256"
        },
        {
          "indexed": false,
          "internalType": "uint256",
          "name": "value",
          "type": "uint256"
        }
      ],
      "name": "TransferSingle",
      "type": "event"
    },
    {
      "anonymous": false,
      "inputs": [
        {
          "indexed": false,
          "internalType": "string",
          "name": "value",
          "type": "string"
        },
        {
          "indexed": true,
          "internalType": "uint256",
          "name": "id",
          "type": "uint256"
        }
      ],
      "name": "URI",
      "type": "event"
    },
    {
      "inputs": [
        {
          "internalType": "address",
          "name": "account",
          "type": "address"
        },
        {
          "internalType": "uint256",
          "name": "id",
          "type": "uint256"
        }
      ],
      "name": "balanceOf",
      "outputs": [
        {
          "internalType": "uint256",
          "name": "",
          "type": "uint256"
        }
      ],
      "stateMutability": "view",
      "type": "function"
    },
    {
      "inputs": [
        {
          "internalType": "address[]",
          "name": "accounts",
          "type": "address[]"
        },
        {
          "internalType": "uint256[]",
          "name": "ids",
          "type": "uint256[]"
        }
      ],
      "name": "balanceOfBatch",
      "outputs": [
        {
          "internalType": "uint256[]",
          "name": "",
          "type": "uint256[]"
        }
      ],
      "stateMutability": "view",
      "type": "function"
    },
    {
      "inputs": [
        {
          "internalType": "bytes32",
          "name": "_messageHash",
          "type": "bytes32"
        }
      ],
      "name": "getEthSignedMessageHash",
      "outputs": [
        {
          "internalType": "bytes32",
          "name": "",
          "type": "bytes32"
        }
      ],
      "stateMutability": "pure",
      "type": "function"
    },
    {
      "inputs": [
        {
          "internalType": "address[]",
          "name": "addresses",
          "type": "address[]"
        },
        {
          "internalType": "bytes32",
          "name": "_rawMessageHash",
          "type": "bytes32"
        }
      ],
      "name": "getMessageHash",
      "outputs": [
        {
          "internalType": "bytes32",
          "name": "",
          "type": "bytes32"
        }
      ],
      "stateMutability": "pure",
      "type": "function"
    },
    {
      "inputs": [
        {
          "internalType": "bytes",
          "name": "_signatures",
          "type": "bytes"
        },
        {
          "internalType": "bytes32",
          "name": "_rawMessageHash",
          "type": "bytes32"
        },
        {
          "internalType": "address[]",
          "name": "addresses",
          "type": "address[]"
        },
        {
          "internalType": "string",
          "name": "tokenCid",
          "type": "string"
        }
      ],
      "name": "initilizeNFT",
      "outputs": [],
      "stateMutability": "nonpayable",
      "type": "function"
    },
    {
      "inputs": [
        {
          "internalType": "address",
          "name": "account",
          "type": "address"
        },
        {
          "internalType": "address",
          "name": "operator",
          "type": "address"
        }
      ],
      "name": "isApprovedForAll",
      "outputs": [
        {
          "internalType": "bool",
          "name": "",
          "type": "bool"
        }
      ],
      "stateMutability": "view",
      "type": "function"
    },
    {
      "inputs": [
        {
          "internalType": "bytes32",
          "name": "",
          "type": "bytes32"
        },
        {
          "internalType": "address",
          "name": "",
          "type": "address"
        }
      ],
      "name": "isHashUsed",
      "outputs": [
        {
          "internalType": "bool",
          "name": "",
          "type": "bool"
        }
      ],
      "stateMutability": "view",
      "type": "function"
    },
    {
      "inputs": [
        {
          "internalType": "uint256",
          "name": "tokenId",
          "type": "uint256"
        },
        {
          "internalType": "address",
          "name": "to",
          "type": "address"
        }
      ],
      "name": "mint",
      "outputs": [],
      "stateMutability": "nonpayable",
      "type": "function"
    },
    {
      "inputs": [
        {
          "internalType": "uint256",
          "name": "",
          "type": "uint256"
        },
        {
          "internalType": "address",
          "name": "",
          "type": "address"
        }
      ],
      "name": "p2pwhitelist",
      "outputs": [
        {
          "internalType": "bool",
          "name": "",
          "type": "bool"
        }
      ],
      "stateMutability": "view",
      "type": "function"
    },
    {
      "inputs": [
        {
          "internalType": "address",
          "name": "from",
          "type": "address"
        },
        {
          "internalType": "address",
          "name": "to",
          "type": "address"
        },
        {
          "internalType": "uint256[]",
          "name": "ids",
          "type": "uint256[]"
        },
        {
          "internalType": "uint256[]",
          "name": "amounts",
          "type": "uint256[]"
        },
        {
          "internalType": "bytes",
          "name": "data",
          "type": "bytes"
        }
      ],
      "name": "safeBatchTransferFrom",
      "outputs": [],
      "stateMutability": "nonpayable",
      "type": "function"
    },
    {
      "inputs": [
        {
          "internalType": "address",
          "name": "from",
          "type": "address"
        },
        {
          "internalType": "address",
          "name": "to",
          "type": "address"
        },
        {
          "internalType": "uint256",
          "name": "id",
          "type": "uint256"
        },
        {
          "internalType": "uint256",
          "name": "amount",
          "type": "uint256"
        },
        {
          "internalType": "bytes",
          "name": "data",
          "type": "bytes"
        }
      ],
      "name": "safeTransferFrom",
      "outputs": [],
      "stateMutability": "nonpayable",
      "type": "function"
    },
    {
      "inputs": [
        {
          "internalType": "address",
          "name": "operator",
          "type": "address"
        },
        {
          "internalType": "bool",
          "name": "approved",
          "type": "bool"
        }
      ],
      "name": "setApprovalForAll",
      "outputs": [],
      "stateMutability": "nonpayable",
      "type": "function"
    },
    {
      "inputs": [
        {
          "internalType": "bytes",
          "name": "sig",
          "type": "bytes"
        }
      ],
      "name": "splitSignature",
      "outputs": [
        {
          "internalType": "bytes32",
          "name": "r",
          "type": "bytes32"
        },
        {
          "internalType": "bytes32",
          "name": "s",
          "type": "bytes32"
        },
        {
          "internalType": "uint8",
          "name": "v",
          "type": "uint8"
        }
      ],
      "stateMutability": "pure",
      "type": "function"
    },
    {
      "inputs": [
        {
          "internalType": "bytes4",
          "name": "interfaceId",
          "type": "bytes4"
        }
      ],
      "name": "supportsInterface",
      "outputs": [
        {
          "internalType": "bool",
          "name": "",
          "type": "bool"
        }
      ],
      "stateMutability": "view",
      "type": "function"
    },
    {
      "inputs": [
        {
          "internalType": "uint256",
          "name": "",
          "type": "uint256"
        }
      ],
      "name": "tokenToCid",
      "outputs": [
        {
          "internalType": "string",
          "name": "",
          "type": "string"
        }
      ],
      "stateMutability": "view",
      "type": "function"
    },
    {
      "inputs": [
        {
          "internalType": "uint256",
          "name": "tokenId",
          "type": "uint256"
        }
      ],
      "name": "uri",
      "outputs": [
        {
          "internalType": "string",
          "name": "",
          "type": "string"
        }
      ],
      "stateMutability": "view",
      "type": "function"
    }
  ],
  "bytecode": "0x60806040523480156200001157600080fd5b506040805160208101909152600081526200002c8162000033565b506200012f565b8051620000489060029060208401906200004c565b5050565b8280546200005a90620000f2565b90600052602060002090601f0160209004810192826200007e5760008555620000c9565b82601f106200009957805160ff1916838001178555620000c9565b82800160010185558215620000c9579182015b82811115620000c9578251825591602001919060010190620000ac565b50620000d7929150620000db565b5090565b5b80821115620000d75760008155600101620000dc565b600181811c908216806200010757607f821691505b602082108114156200012957634e487b7160e01b600052602260045260246000fd5b50919050565b611efa806200013f6000396000f3fe608060405234801561001057600080fd5b50600436106100ff5760003560e01c80637ae86c8311610097578063a7bb580311610066578063a7bb58031461025d578063e985e9c51461028e578063f242432a146102ca578063fa540801146102dd57600080fd5b80637ae86c83146101f65780637e3c45f01461020957806394bf804d14610237578063a22cb4651461024a57600080fd5b80632eb2c2d6116100d35780632eb2c2d6146101825780634e1273f4146101955780634e17a702146101b55780637474e84d146101e357600080fd5b8062fdd58e1461010457806301ffc9a71461012a5780630e89341c1461014d5780631c3663921461016d575b600080fd5b610117610112366004611486565b6102f0565b6040519081526020015b60405180910390f35b61013d6101383660046114c9565b610387565b6040519015158152602001610121565b61016061015b3660046114ed565b6103d9565b6040516101219190611553565b61018061017b3660046116c3565b610460565b005b6101806101903660046117cf565b6106ec565b6101a86101a3366004611879565b610783565b6040516101219190611918565b61013d6101c336600461192b565b600560209081526000928352604080842090915290825290205460ff1681565b6101606101f13660046114ed565b6108ad565b610117610204366004611957565b610947565b61013d61021736600461192b565b600460209081526000928352604080842090915290825290205460ff1681565b61018061024536600461192b565b61097a565b61018061025836600461199c565b610a44565b61027061026b3660046119d8565b610a4f565b60408051938452602084019290925260ff1690820152606001610121565b61013d61029c366004611a15565b6001600160a01b03918216600090815260016020908152604080832093909416825291909152205460ff1690565b6101806102d8366004611a3f565b610ac3565b6101176102eb3660046114ed565b610b4a565b60006001600160a01b0383166103615760405162461bcd60e51b815260206004820152602b60248201527f455243313135353a2062616c616e636520717565727920666f7220746865207a60448201526a65726f206164647265737360a81b60648201526084015b60405180910390fd5b506000908152602081815260408083206001600160a01b03949094168352929052205490565b60006001600160e01b03198216636cdb3d1360e11b14806103b857506001600160e01b031982166303a24d0760e21b145b806103d357506301ffc9a760e01b6001600160e01b03198316145b92915050565b60606103e460035490565b821061042b5760405162461bcd60e51b81526020600482015260166024820152751d1bdad95b925908191bd95cc81b9bdd08195e1a5cdd60521b6044820152606401610358565b600082815260066020908152604091829020915161044a929101611adf565b6040516020818303038152906040529050919050565b8151600061046d60035490565b905060005b828110156106915760008060006104a28a8560419081029190910160208101516040820151919092015160ff1692565b92509250925060006104b4898b610947565b905060006104c182610b4a565b6040805160008082526020820180845284905260ff89169282019290925260608101879052608081018690529192509060019060a0016020604051602081039080840390855afa158015610519573d6000803e3d6000fd5b5050506020604051035190508a878151811061053757610537611bb2565b60200260200101516001600160a01b0316816001600160a01b0316146105a257808b888151811061056a5761056a611bb2565b6020026020010151604051632dc0eb7d60e21b81526004016103589291906001600160a01b0392831681529116602082015260400190565b60008c81526005602090815260408083206001600160a01b038516845290915290205460ff16156105f857604051630d0b96dd60e01b8152600481018d90526001600160a01b0382166024820152604401610358565b60008c81526005602090815260408083206001600160a01b0385168085529083528184208054600160ff1991821681179092558d8652600485528386208387528552948390208054909516179093555191825289917fc48f69701e56be6ddf9b404fdd3be43efa65bfa803e6c2036493dfee5065c50c910160405180910390a2505050505050808061068990611bde565b915050610472565b5061069c8184610b9d565b6106aa600380546001019055565b807fa5e7d43940fd0873a7ff75f0168fe1cb66544fb316f7b646795fa1bc1d0861f8866040516106dc91815260200190565b60405180910390a2505050505050565b6001600160a01b0385163314806107085750610708853361029c565b61076f5760405162461bcd60e51b815260206004820152603260248201527f455243313135353a207472616e736665722063616c6c6572206973206e6f74206044820152711bdddb995c881b9bdc88185c1c1c9bdd995960721b6064820152608401610358565b61077c8585858585610bc1565b5050505050565b606081518351146107e85760405162461bcd60e51b815260206004820152602960248201527f455243313135353a206163636f756e747320616e6420696473206c656e677468604482015268040dad2e6dac2e8c6d60bb1b6064820152608401610358565b6000835167ffffffffffffffff81111561080457610804611566565b60405190808252806020026020018201604052801561082d578160200160208202803683370190505b50905060005b84518110156108a55761087885828151811061085157610851611bb2565b602002602001015185838151811061086b5761086b611bb2565b60200260200101516102f0565b82828151811061088a5761088a611bb2565b602090810291909101015261089e81611bde565b9050610833565b509392505050565b600660205260009081526040902080546108c690611aa4565b80601f01602080910402602001604051908101604052809291908181526020018280546108f290611aa4565b801561093f5780601f106109145761010080835404028352916020019161093f565b820191906000526020600020905b81548152906001019060200180831161092257829003601f168201915b505050505081565b6000828260405160200161095c929190611bf9565b60405160208183030381529060405280519060200120905092915050565b60008281526004602090815260408083206001600160a01b038516845290915290205460ff166109dc5760405162461bcd60e51b815260206004820152600d60248201526c1b9bdd081dda1a5d195b1a5cdd609a1b6044820152606401610358565b6109e681836102f0565b15610a245760405162461bcd60e51b815260206004820152600e60248201526d185b1c9958591e481b5a5b9d195960921b6044820152606401610358565b610a408183600160405180602001604052806000815250610dba565b5050565b610a40338383610eec565b60008060008351604114610aa55760405162461bcd60e51b815260206004820152601860248201527f696e76616c6964207369676e6174757265206c656e67746800000000000000006044820152606401610358565b50505060208101516040820151606090920151909260009190911a90565b6001600160a01b038516331480610adf5750610adf853361029c565b610b3d5760405162461bcd60e51b815260206004820152602960248201527f455243313135353a2063616c6c6572206973206e6f74206f776e6572206e6f7260448201526808185c1c1c9bdd995960ba1b6064820152608401610358565b61077c8585858585610fcd565b6040517f19457468657265756d205369676e6564204d6573736167653a0a3332000000006020820152603c8101829052600090605c01604051602081830303815290604052805190602001209050919050565b60008281526006602090815260409091208251610bbc928401906113d1565b505050565b8151835114610c235760405162461bcd60e51b815260206004820152602860248201527f455243313135353a2069647320616e6420616d6f756e7473206c656e677468206044820152670dad2e6dac2e8c6d60c31b6064820152608401610358565b6001600160a01b038416610c495760405162461bcd60e51b815260040161035890611c4a565b33610c58818787878787611113565b60005b8451811015610d3e576000858281518110610c7857610c78611bb2565b602002602001015190506000858381518110610c9657610c96611bb2565b602090810291909101810151600084815280835260408082206001600160a01b038e168352909352919091205490915081811015610ce65760405162461bcd60e51b815260040161035890611c8f565b6000838152602081815260408083206001600160a01b038e8116855292528083208585039055908b16825281208054849290610d23908490611cd9565b9250508190555050505080610d3790611bde565b9050610c5b565b50846001600160a01b0316866001600160a01b0316826001600160a01b03167f4a39dc06d4c0dbc64b70af90fd698a233a518aa5d07e595d983b8c0526c8f7fb8787604051610d8e929190611cf1565b60405180910390a4610da481878787878761116a565b610db281878787878761116f565b505050505050565b6001600160a01b038416610e1a5760405162461bcd60e51b815260206004820152602160248201527f455243313135353a206d696e7420746f20746865207a65726f206164647265736044820152607360f81b6064820152608401610358565b336000610e26856112cb565b90506000610e33856112cb565b9050610e4483600089858589611113565b6000868152602081815260408083206001600160a01b038b16845290915281208054879290610e74908490611cd9565b909155505060408051878152602081018790526001600160a01b03808a1692600092918716917fc3d58168c5ae7397731d063d5bbf3d657854427343f4c083240f7aacaa2d0f62910160405180910390a4610ed48360008985858961116a565b610ee383600089898989611316565b50505050505050565b816001600160a01b0316836001600160a01b03161415610f605760405162461bcd60e51b815260206004820152602960248201527f455243313135353a2073657474696e6720617070726f76616c20737461747573604482015268103337b91039b2b63360b91b6064820152608401610358565b6001600160a01b03838116600081815260016020908152604080832094871680845294825291829020805460ff191686151590811790915591519182527f17307eab39ab6107e8899845ad3d59bd9653f200f220920489ca2b5937696c31910160405180910390a3505050565b6001600160a01b038416610ff35760405162461bcd60e51b815260040161035890611c4a565b336000610fff856112cb565b9050600061100c856112cb565b905061101c838989858589611113565b6000868152602081815260408083206001600160a01b038c1684529091529020548581101561105d5760405162461bcd60e51b815260040161035890611c8f565b6000878152602081815260408083206001600160a01b038d8116855292528083208985039055908a1682528120805488929061109a908490611cd9565b909155505060408051888152602081018890526001600160a01b03808b16928c821692918816917fc3d58168c5ae7397731d063d5bbf3d657854427343f4c083240f7aacaa2d0f62910160405180910390a46110fa848a8a86868a61116a565b611108848a8a8a8a8a611316565b505050505050505050565b6001600160a01b0385161561116a5760405162461bcd60e51b815260206004820152601860248201527f4572723a20746f6b656e20697320534f554c20424f554e4400000000000000006044820152606401610358565b610db2565b6001600160a01b0384163b15610db25760405163bc197c8160e01b81526001600160a01b0385169063bc197c81906111b39089908990889088908890600401611d16565b6020604051808303816000875af19250505080156111ee575060408051601f3d908101601f191682019092526111eb91810190611d74565b60015b61129b576111fa611d91565b806308c379a01415611234575061120f611dad565b8061121a5750611236565b8060405162461bcd60e51b81526004016103589190611553565b505b60405162461bcd60e51b815260206004820152603460248201527f455243313135353a207472616e7366657220746f206e6f6e20455243313135356044820152732932b1b2b4bb32b91034b6b83632b6b2b73a32b960611b6064820152608401610358565b6001600160e01b0319811663bc197c8160e01b14610ee35760405162461bcd60e51b815260040161035890611e37565b6040805160018082528183019092526060916000919060208083019080368337019050509050828160008151811061130557611305611bb2565b602090810291909101015292915050565b6001600160a01b0384163b15610db25760405163f23a6e6160e01b81526001600160a01b0385169063f23a6e619061135a9089908990889088908890600401611e7f565b6020604051808303816000875af1925050508015611395575060408051601f3d908101601f1916820190925261139291810190611d74565b60015b6113a1576111fa611d91565b6001600160e01b0319811663f23a6e6160e01b14610ee35760405162461bcd60e51b815260040161035890611e37565b8280546113dd90611aa4565b90600052602060002090601f0160209004810192826113ff5760008555611445565b82601f1061141857805160ff1916838001178555611445565b82800160010185558215611445579182015b8281111561144557825182559160200191906001019061142a565b50611451929150611455565b5090565b5b808211156114515760008155600101611456565b80356001600160a01b038116811461148157600080fd5b919050565b6000806040838503121561149957600080fd5b6114a28361146a565b946020939093013593505050565b6001600160e01b0319811681146114c657600080fd5b50565b6000602082840312156114db57600080fd5b81356114e6816114b0565b9392505050565b6000602082840312156114ff57600080fd5b5035919050565b6000815180845260005b8181101561152c57602081850181015186830182015201611510565b8181111561153e576000602083870101525b50601f01601f19169290920160200192915050565b6020815260006114e66020830184611506565b634e487b7160e01b600052604160045260246000fd5b601f8201601f1916810167ffffffffffffffff811182821017156115a2576115a2611566565b6040525050565b600067ffffffffffffffff8311156115c3576115c3611566565b6040516115da601f8501601f19166020018261157c565b8091508381528484840111156115ef57600080fd5b83836020830137600060208583010152509392505050565b600082601f83011261161857600080fd5b6114e6838335602085016115a9565b600067ffffffffffffffff82111561164157611641611566565b5060051b60200190565b600082601f83011261165c57600080fd5b8135602061166982611627565b604051611676828261157c565b83815260059390931b850182019282810191508684111561169657600080fd5b8286015b848110156116b8576116ab8161146a565b835291830191830161169a565b509695505050505050565b600080600080608085870312156116d957600080fd5b843567ffffffffffffffff808211156116f157600080fd5b6116fd88838901611607565b955060208701359450604087013591508082111561171a57600080fd5b6117268883890161164b565b9350606087013591508082111561173c57600080fd5b508501601f8101871361174e57600080fd5b61175d878235602084016115a9565b91505092959194509250565b600082601f83011261177a57600080fd5b8135602061178782611627565b604051611794828261157c565b83815260059390931b85018201928281019150868411156117b457600080fd5b8286015b848110156116b857803583529183019183016117b8565b600080600080600060a086880312156117e757600080fd5b6117f08661146a565b94506117fe6020870161146a565b9350604086013567ffffffffffffffff8082111561181b57600080fd5b61182789838a01611769565b9450606088013591508082111561183d57600080fd5b61184989838a01611769565b9350608088013591508082111561185f57600080fd5b5061186c88828901611607565b9150509295509295909350565b6000806040838503121561188c57600080fd5b823567ffffffffffffffff808211156118a457600080fd5b6118b08683870161164b565b935060208501359150808211156118c657600080fd5b506118d385828601611769565b9150509250929050565b600081518084526020808501945080840160005b8381101561190d578151875295820195908201906001016118f1565b509495945050505050565b6020815260006114e660208301846118dd565b6000806040838503121561193e57600080fd5b8235915061194e6020840161146a565b90509250929050565b6000806040838503121561196a57600080fd5b823567ffffffffffffffff81111561198157600080fd5b61198d8582860161164b565b95602094909401359450505050565b600080604083850312156119af57600080fd5b6119b88361146a565b9150602083013580151581146119cd57600080fd5b809150509250929050565b6000602082840312156119ea57600080fd5b813567ffffffffffffffff811115611a0157600080fd5b611a0d84828501611607565b949350505050565b60008060408385031215611a2857600080fd5b611a318361146a565b915061194e6020840161146a565b600080600080600060a08688031215611a5757600080fd5b611a608661146a565b9450611a6e6020870161146a565b93506040860135925060608601359150608086013567ffffffffffffffff811115611a9857600080fd5b61186c88828901611607565b600181811c90821680611ab857607f821691505b60208210811415611ad957634e487b7160e01b600052602260045260246000fd5b50919050565b66697066733a2f2f60c81b8152600060076000845481600182811c915080831680611b0b57607f831692505b6020808410821415611b2b57634e487b7160e01b86526022600452602486fd5b818015611b3f5760018114611b5457611b85565b60ff1986168a890152848a0188019650611b85565b60008b81526020902060005b86811015611b7b5781548c82018b0152908501908301611b60565b505087858b010196505b505050505050611ba9816d17b6b2ba30b230ba30973539b7b760911b8152600e0190565b95945050505050565b634e487b7160e01b600052603260045260246000fd5b634e487b7160e01b600052601160045260246000fd5b6000600019821415611bf257611bf2611bc8565b5060010190565b604080825283519082018190526000906020906060840190828701845b82811015611c3b5781516001600160a01b031684529284019290840190600101611c16565b50505092019290925292915050565b60208082526025908201527f455243313135353a207472616e7366657220746f20746865207a65726f206164604082015264647265737360d81b606082015260800190565b6020808252602a908201527f455243313135353a20696e73756666696369656e742062616c616e636520666f60408201526939103a3930b739b332b960b11b606082015260800190565b60008219821115611cec57611cec611bc8565b500190565b604081526000611d0460408301856118dd565b8281036020840152611ba981856118dd565b6001600160a01b0386811682528516602082015260a060408201819052600090611d42908301866118dd565b8281036060840152611d5481866118dd565b90508281036080840152611d688185611506565b98975050505050505050565b600060208284031215611d8657600080fd5b81516114e6816114b0565b600060033d1115611daa5760046000803e5060005160e01c5b90565b600060443d1015611dbb5790565b6040516003193d81016004833e81513d67ffffffffffffffff8160248401118184111715611deb57505050505090565b8285019150815181811115611e035750505050505090565b843d8701016020828501011115611e1d5750505050505090565b611e2c6020828601018761157c565b509095945050505050565b60208082526028908201527f455243313135353a204552433131353552656365697665722072656a656374656040820152676420746f6b656e7360c01b606082015260800190565b6001600160a01b03868116825285166020820152604081018490526060810183905260a060808201819052600090611eb990830184611506565b97965050505050505056fea2646970667358221220ba8b34c7dc30209676e515dd5c3025f72a749e67dd4d81fed80810cb2b7ec39364736f6c634300080b0033",
  "linkReferences": {},
  "deployedLinkReferences": {}
}